:020000020000FC
:1000000012C089C018951895189518951895A0C014
:100010001895189518951895189518951895189578
:100020001895189518950FED0DBF0FEF07BB0FEF43
:1000300008BB00E701BB0FE702BB05E003BF0EBD35
:1000400000E40BBF00E808B902E005BF0027112754
:10005000222733274427662777275527AA27BB2738
:10006000F89400E017E602B919B911E01BB918E9D4
:100070001AB916E013B978941030E9F32A3009F070
:10008000FACFF894103FB9F0163101F11E3101F1A9
:10009000163201F1153201F11E3201F1193201F16E
:1000A000113101F1123101F11B3101F11C3201F169
:1000B0001A3501F1E0CFEE27FF27413029F031E07A
:1000C0000FEF08BB1127D7CF4427FACFC098D3CF63
:1000D000C198D1CFC298CFCFC398CDCFC498CBCF42
:1000E000C598C9CFC698C7CFC798C5CFE12FC3CF92
:1000F000F12FC1CFEB3171F4FC3261F49598A0D0AF
:100100009FD09ED09DD09CD09BD0959AEE27FF2764
:10011000112774C0B0CF0F93203011F4839916C00B
:10012000203051F0293041F02A3078F400B303FB3D
:1001300017F9283019F01695239508C0239531300A
:1001400029F410EF41E0332701C022270F911895C1
:10015000F8940F931F93FF93EF936CB1589B05C0D6
:10016000603311F410E01BB954C06037D1F16C3624
:10017000F9F16B3659F0633749F1513008F449C051
:100180006A3308F046C0603308F443C053956053A7
:100190005130F9F1613011F41A963BC0623011F41C
:1001A000549637C0633011F45E9633C0643011F456
:1001B00098962FC0653011F4D2962BC0663011F49A
:1001C000119627C0673029F5159623C05527B03002
:1001D00011F4A03099F0949833D0949A27D01197C5
:1001E000F5CF96982DD02CD02BD02AD0969A06C039
:1001F000959826D025D0959AEE27FF2711E01BB9B8
:10020000E8E2F2E0C591D49174917D3111F008D00B
:10021000F9CF66277727EF91FF911F910F911895DE
:100220005D9BFECF7CB90895006F6B1D00E00DBD96
:100230000CBD0CB50C3BE8F30DB50230D0F30895BE
:1002400000E00DBD0CBD0CB50032E8F30DB5033078
:04025000D0F308954A
:00000001FF
